{
  "_format": "hh-sol-artifact-1",
  "contractName": "WavePortal",
  "sourceName": "contracts/WavePortal.sol",
  "abi": [
    {
      "inputs": [],
      "stateMutability": "payable",
      "type": "constructor"
    },
    {
      "anonymous": false,
      "inputs": [
        {
          "indexed": true,
          "internalType": "address",
          "name": "from",
          "type": "address"
        },
        {
          "indexed": false,
          "internalType": "uint256",
          "name": "timestamp",
          "type": "uint256"
        },
        {
          "indexed": false,
          "internalType": "string",
          "name": "message",
          "type": "string"
        }
      ],
      "name": "NewWave",
      "type": "event"
    },
    {
      "anonymous": false,
      "inputs": [
        {
          "indexed": true,
          "internalType": "address",
          "name": "from",
          "type": "address"
        },
        {
          "indexed": false,
          "internalType": "string",
          "name": "message",
          "type": "string"
        }
      ],
      "name": "NewWinner",
      "type": "event"
    },
    {
      "inputs": [],
      "name": "getAllWaves",
      "outputs": [
        {
          "components": [
            {
              "internalType": "address",
              "name": "waver",
              "type": "address"
            },
            {
              "internalType": "string",
              "name": "message",
              "type": "string"
            },
            {
              "internalType": "uint256",
              "name": "timestamp",
              "type": "uint256"
            }
          ],
          "internalType": "struct WavePortal.Wave[]",
          "name": "",
          "type": "tuple[]"
        }
      ],
      "stateMutability": "view",
      "type": "function"
    },
    {
      "inputs": [],
      "name": "getTotalWaves",
      "outputs": [
        {
          "internalType": "uint256",
          "name": "",
          "type": "uint256"
        }
      ],
      "stateMutability": "view",
      "type": "function"
    },
    {
      "inputs": [],
      "name": "getWinners",
      "outputs": [
        {
          "internalType": "address[]",
          "name": "",
          "type": "address[]"
        }
      ],
      "stateMutability": "view",
      "type": "function"
    },
    {
      "inputs": [
        {
          "internalType": "address",
          "name": "",
          "type": "address"
        }
      ],
      "name": "lastWavedAt",
      "outputs": [
        {
          "internalType": "uint256",
          "name": "",
          "type": "uint256"
        }
      ],
      "stateMutability": "view",
      "type": "function"
    },
    {
      "inputs": [
        {
          "internalType": "string",
          "name": "_message",
          "type": "string"
        }
      ],
      "name": "wave",
      "outputs": [],
      "stateMutability": "nonpayable",
      "type": "function"
    }
  ],
  "bytecode": "0x60806040526200004f6040518060400160405280601981526020017f57652068617665206265656e20636f6e737472756374656421000000000000008152506200005560201b620007211760201c565b620001e9565b620000f5816040516024016200006c919062000162565b6040516020818303038152906040527f41304fac000000000000000000000000000000000000000000000000000000007bffffffffffffffffffffffffffffffffffffffffffffffffffffffff19166020820180517bffffffffffffffffffffffffffffffffffffffffffffffffffffffff8381831617835250505050620000f860201b60201c565b50565b60008151905060006a636f6e736f6c652e6c6f679050602083016000808483855afa5050505050565b60006200012e8262000186565b6200013a818562000191565b93506200014c818560208601620001a2565b6200015781620001d8565b840191505092915050565b600060208201905081810360008301526200017e818462000121565b905092915050565b600081519050919050565b600082825260208201905092915050565b60005b83811015620001c2578082015181840152602081019050620001a5565b83811115620001d2576000848401525b50505050565b6000601f19601f8301169050919050565b6112aa80620001f96000396000f3fe608060405234801561001057600080fd5b50600436106100575760003560e01c8063449d46c01461005c5780639a2cdc0814610078578063a42a466314610096578063bd43a908146100c6578063df15c37e146100e4575b600080fd5b61007660048036038101906100719190610a64565b610102565b005b610080610521565b60405161008d9190610f03565b60405180910390f35b6100b060048036038101906100ab9190610a3b565b61052a565b6040516100bd9190610f03565b60405180910390f35b6100ce610542565b6040516100db9190610dff565b60405180910390f35b6100ec610693565b6040516100f99190610ddd565b60405180910390f35b42600460003373ffffffffffffffffffffffffffffffffffffffff1673ffffffffffffffffffffffffffffffffffffffff1681526020019081526020016000208190555060016000808282546101589190611059565b9250508190555061019e6040518060400160405280600d81526020017f2573206861732077617665642100000000000000000000000000000000000000815250336107ba565b600260405180606001604052803373ffffffffffffffffffffffffffffffffffffffff16815260200183815260200142815250908060018154018082558091505060019003906000526020600020906003020160009091909190915060008201518160000160006101000a81548173ffffffffffffffffffffffffffffffffffffffff021916908373ffffffffffffffffffffffffffffffffffffffff160217905550602082015181600101908051906020019061025d92919061091b565b5060408201518160020155505060006064600154424461027d9190611059565b6102879190611059565b610291919061115f565b90506102d26040518060400160405280601681526020017f52616e646f6d20232067656e6572617465643a2025730000000000000000000081525082610856565b8060018190555060328110156104cd576103216040518060400160405280600781526020017f257320776f6e2100000000000000000000000000000000000000000000000000815250336107ba565b6000655af3107a400090504781111561036f576040517f08c379a000000000000000000000000000000000000000000000000000000000815260040161036690610ea3565b60405180910390fd5b60003373ffffffffffffffffffffffffffffffffffffffff168260405161039590610dc8565b60006040518083038185875af1925050503d80600081146103d2576040519150601f19603f3d011682016040523d82523d6000602084013e6103d7565b606091505b505090503373ffffffffffffffffffffffffffffffffffffffff167fc36ab60bda369ed50d31b9c75411b0c6fb7a5aa626b99cabb180c9debc27251d60405161041f90610ee3565b60405180910390a26003339080600181540180825580915050600190039060005260206000200160009091909190916101000a81548173ffffffffffffffffffffffffffffffffffffffff021916908373ffffffffffffffffffffffffffffffffffffffff160217905550806104ca576040517f08c379a00000000000000000000000000000000000000000000000000000000081526004016104c190610ec3565b60405180910390fd5b50505b3373ffffffffffffffffffffffffffffffffffffffff167f5f7e16dc676677766a70e9c5628aa6c54ddb8b6e5188e2ae1e1f17f1ffbea7164284604051610515929190610f1e565b60405180910390a25050565b60008054905090565b60046020528060005260406000206000915090505481565b60606002805480602002602001604051908101604052809291908181526020016000905b8282101561068a57838290600052602060002090600302016040518060600160405290816000820160009054906101000a900473ffffffffffffffffffffffffffffffffffffffff1673ffffffffffffffffffffffffffffffffffffffff1673ffffffffffffffffffffffffffffffffffffffff1681526020016001820180546105ef9061112d565b80601f016020809104026020016040519081016040528092919081815260200182805461061b9061112d565b80156106685780601f1061063d57610100808354040283529160200191610668565b820191906000526020600020905b81548152906001019060200180831161064b57829003601f168201915b5050505050815260200160028201548152505081526020019060010190610566565b50505050905090565b6060600380548060200260200160405190810160405280929190818152602001828054801561071757602002820191906000526020600020905b8160009054906101000a900473ffffffffffffffffffffffffffffffffffffffff1673ffffffffffffffffffffffffffffffffffffffff16815260200190600101908083116106cd575b5050505050905090565b6107b7816040516024016107359190610e21565b6040516020818303038152906040527f41304fac000000000000000000000000000000000000000000000000000000007bffffffffffffffffffffffffffffffffffffffffffffffffffffffff19166020820180517bffffffffffffffffffffffffffffffffffffffffffffffffffffffff83818316178352505050506108f2565b50565b61085282826040516024016107d0929190610e43565b6040516020818303038152906040527f319af333000000000000000000000000000000000000000000000000000000007bffffffffffffffffffffffffffffffffffffffffffffffffffffffff19166020820180517bffffffffffffffffffffffffffffffffffffffffffffffffffffffff83818316178352505050506108f2565b5050565b6108ee828260405160240161086c929190610e73565b6040516020818303038152906040527f9710a9d0000000000000000000000000000000000000000000000000000000007bffffffffffffffffffffffffffffffffffffffffffffffffffffffff19166020820180517bffffffffffffffffffffffffffffffffffffffffffffffffffffffff83818316178352505050506108f2565b5050565b60008151905060006a636f6e736f6c652e6c6f679050602083016000808483855afa5050505050565b8280546109279061112d565b90600052602060002090601f0160209004810192826109495760008555610990565b82601f1061096257805160ff1916838001178555610990565b82800160010185558215610990579182015b8281111561098f578251825591602001919060010190610974565b5b50905061099d91906109a1565b5090565b5b808211156109ba5760008160009055506001016109a2565b5090565b60006109d16109cc84610f7f565b610f4e565b9050828152602081018484840111156109e957600080fd5b6109f48482856110eb565b509392505050565b600081359050610a0b8161125d565b92915050565b600082601f830112610a2257600080fd5b8135610a328482602086016109be565b91505092915050565b600060208284031215610a4d57600080fd5b6000610a5b848285016109fc565b91505092915050565b600060208284031215610a7657600080fd5b600082013567ffffffffffffffff811115610a9057600080fd5b610a9c84828501610a11565b91505092915050565b6000610ab18383610ad1565b60208301905092915050565b6000610ac98383610d5a565b905092915050565b610ada816110af565b82525050565b610ae9816110af565b82525050565b6000610afa82610fcf565b610b04818561100a565b9350610b0f83610faf565b8060005b83811015610b40578151610b278882610aa5565b9750610b3283610ff0565b925050600181019050610b13565b5085935050505092915050565b6000610b5882610fda565b610b62818561101b565b935083602082028501610b7485610fbf565b8060005b85811015610bb05784840389528151610b918582610abd565b9450610b9c83610ffd565b925060208a01995050600181019050610b78565b50829750879550505050505092915050565b6000610bcd82610fe5565b610bd78185611037565b9350610be78185602086016110fa565b610bf08161124c565b840191505092915050565b6000610c0682610fe5565b610c108185611048565b9350610c208185602086016110fa565b610c298161124c565b840191505092915050565b6000610c41603483611048565b91507f547279696e6720746f207769746864726177206d6f7265206d6f6e657920746860008301527f616e2074686520636f6e7472616374206861732e0000000000000000000000006020830152604082019050919050565b6000610ca7602783611048565b91507f4661696c656420746f207769746864726177206d6f6e65792066726f6d20636f60008301527f6e74726163742e000000000000000000000000000000000000000000000000006020830152604082019050919050565b6000610d0d60008361102c565b9150600082019050919050565b6000610d27600d83611048565b91507f4e65772077696e6e6572727221000000000000000000000000000000000000006000830152602082019050919050565b6000606083016000830151610d726000860182610ad1565b5060208301518482036020860152610d8a8282610bc2565b9150506040830151610d9f6040860182610daa565b508091505092915050565b610db3816110e1565b82525050565b610dc2816110e1565b82525050565b6000610dd382610d00565b9150819050919050565b60006020820190508181036000830152610df78184610aef565b905092915050565b60006020820190508181036000830152610e198184610b4d565b905092915050565b60006020820190508181036000830152610e3b8184610bfb565b905092915050565b60006040820190508181036000830152610e5d8185610bfb565b9050610e6c6020830184610ae0565b9392505050565b60006040820190508181036000830152610e8d8185610bfb565b9050610e9c6020830184610db9565b9392505050565b60006020820190508181036000830152610ebc81610c34565b9050919050565b60006020820190508181036000830152610edc81610c9a565b9050919050565b60006020820190508181036000830152610efc81610d1a565b9050919050565b6000602082019050610f186000830184610db9565b92915050565b6000604082019050610f336000830185610db9565b8181036020830152610f458184610bfb565b90509392505050565b6000604051905081810181811067ffffffffffffffff82111715610f7557610f7461121d565b5b8060405250919050565b600067ffffffffffffffff821115610f9a57610f9961121d565b5b601f19601f8301169050602081019050919050565b6000819050602082019050919050565b6000819050602082019050919050565b600081519050919050565b600081519050919050565b600081519050919050565b6000602082019050919050565b6000602082019050919050565b600082825260208201905092915050565b600082825260208201905092915050565b600081905092915050565b600082825260208201905092915050565b600082825260208201905092915050565b6000611064826110e1565b915061106f836110e1565b9250827fffffffffffffffffffffffffffffffffffffffffffffffffffffffffffffffff038211156110a4576110a3611190565b5b828201905092915050565b60006110ba826110c1565b9050919050565b600073ffffffffffffffffffffffffffffffffffffffff82169050919050565b6000819050919050565b82818337600083830152505050565b60005b838110156111185780820151818401526020810190506110fd565b83811115611127576000848401525b50505050565b6000600282049050600182168061114557607f821691505b60208210811415611159576111586111ee565b5b50919050565b600061116a826110e1565b9150611175836110e1565b925082611185576111846111bf565b5b828206905092915050565b7f4e487b7100000000000000000000000000000000000000000000000000000000600052601160045260246000fd5b7f4e487b7100000000000000000000000000000000000000000000000000000000600052601260045260246000fd5b7f4e487b7100000000000000000000000000000000000000000000000000000000600052602260045260246000fd5b7f4e487b7100000000000000000000000000000000000000000000000000000000600052604160045260246000fd5b6000601f19601f8301169050919050565b611266816110af565b811461127157600080fd5b5056fea264697066735822122037473902500aec5976b1b1527e94c3722f67e2a745714c36e344120ba5408cdb64736f6c63430008000033",
  "linkReferences": {},
  "deployedLinkReferences": {}
}