{
  "_format": "hh-sol-artifact-1",
  "contractName": "WavePortal",
  "sourceName": "contracts/WavePortal.sol",
  "abi": [
    {
      "inputs": [],
      "stateMutability": "payable",
      "type": "constructor"
    },
    {
      "anonymous": false,
      "inputs": [
        {
          "indexed": true,
          "internalType": "address",
          "name": "from",
          "type": "address"
        },
        {
          "indexed": false,
          "internalType": "uint256",
          "name": "timestamp",
          "type": "uint256"
        },
        {
          "indexed": false,
          "internalType": "string",
          "name": "message",
          "type": "string"
        }
      ],
      "name": "NewWave",
      "type": "event"
    },
    {
      "anonymous": false,
      "inputs": [
        {
          "indexed": true,
          "internalType": "address",
          "name": "from",
          "type": "address"
        },
        {
          "indexed": false,
          "internalType": "string",
          "name": "message",
          "type": "string"
        }
      ],
      "name": "NewWinner",
      "type": "event"
    },
    {
      "inputs": [],
      "name": "getAllWaves",
      "outputs": [
        {
          "components": [
            {
              "internalType": "address",
              "name": "waver",
              "type": "address"
            },
            {
              "internalType": "string",
              "name": "message",
              "type": "string"
            },
            {
              "internalType": "uint256",
              "name": "timestamp",
              "type": "uint256"
            }
          ],
          "internalType": "struct WavePortal.Wave[]",
          "name": "",
          "type": "tuple[]"
        }
      ],
      "stateMutability": "view",
      "type": "function"
    },
    {
      "inputs": [],
      "name": "getTotalWaves",
      "outputs": [
        {
          "internalType": "uint256",
          "name": "",
          "type": "uint256"
        }
      ],
      "stateMutability": "view",
      "type": "function"
    },
    {
      "inputs": [],
      "name": "getWinners",
      "outputs": [
        {
          "internalType": "address[]",
          "name": "",
          "type": "address[]"
        }
      ],
      "stateMutability": "view",
      "type": "function"
    },
    {
      "inputs": [
        {
          "internalType": "address",
          "name": "",
          "type": "address"
        }
      ],
      "name": "lastWavedAt",
      "outputs": [
        {
          "internalType": "uint256",
          "name": "",
          "type": "uint256"
        }
      ],
      "stateMutability": "view",
      "type": "function"
    },
    {
      "inputs": [
        {
          "internalType": "string",
          "name": "_message",
          "type": "string"
        }
      ],
      "name": "wave",
      "outputs": [],
      "stateMutability": "nonpayable",
      "type": "function"
    }
  ],
  "bytecode": "0x60806040526200004f6040518060400160405280601981526020017f57652068617665206265656e20636f6e737472756374656421000000000000008152506200005560201b620007af1760201c565b620001e9565b620000f5816040516024016200006c919062000162565b6040516020818303038152906040527f41304fac000000000000000000000000000000000000000000000000000000007bffffffffffffffffffffffffffffffffffffffffffffffffffffffff19166020820180517bffffffffffffffffffffffffffffffffffffffffffffffffffffffff8381831617835250505050620000f860201b60201c565b50565b60008151905060006a636f6e736f6c652e6c6f679050602083016000808483855afa5050505050565b60006200012e8262000186565b6200013a818562000191565b93506200014c818560208601620001a2565b6200015781620001d8565b840191505092915050565b600060208201905081810360008301526200017e818462000121565b905092915050565b600081519050919050565b600082825260208201905092915050565b60005b83811015620001c2578082015181840152602081019050620001a5565b83811115620001d2576000848401525b50505050565b6000601f19601f8301169050919050565b61139880620001f96000396000f3fe608060405234801561001057600080fd5b50600436106100575760003560e01c8063449d46c01461005c5780639a2cdc0814610078578063a42a466314610096578063bd43a908146100c6578063df15c37e146100e4575b600080fd5b61007660048036038101906100719190610af2565b610102565b005b6100806105af565b60405161008d9190610ff1565b60405180910390f35b6100b060048036038101906100ab9190610ac9565b6105b8565b6040516100bd9190610ff1565b60405180910390f35b6100ce6105d0565b6040516100db9190610ecd565b60405180910390f35b6100ec610721565b6040516100f99190610eab565b60405180910390f35b4261012c600460003373ffffffffffffffffffffffffffffffffffffffff1673ffffffffffffffffffffffffffffffffffffffff168152602001908152602001600020546101509190611147565b10610190576040517f08c379a000000000000000000000000000000000000000000000000000000000815260040161018790610fb1565b60405180910390fd5b42600460003373ffffffffffffffffffffffffffffffffffffffff1673ffffffffffffffffffffffffffffffffffffffff1681526020019081526020016000208190555060016000808282546101e69190611147565b9250508190555061022c6040518060400160405280600d81526020017f257320686173207761766564210000000000000000000000000000000000000081525033610848565b600260405180606001604052803373ffffffffffffffffffffffffffffffffffffffff16815260200183815260200142815250908060018154018082558091505060019003906000526020600020906003020160009091909190915060008201518160000160006101000a81548173ffffffffffffffffffffffffffffffffffffffff021916908373ffffffffffffffffffffffffffffffffffffffff16021790555060208201518160010190805190602001906102eb9291906109a9565b5060408201518160020155505060006064600154424461030b9190611147565b6103159190611147565b61031f919061124d565b90506103606040518060400160405280601681526020017f52616e646f6d20232067656e6572617465643a20257300000000000000000000815250826108e4565b80600181905550603281101561055b576103af6040518060400160405280600781526020017f257320776f6e210000000000000000000000000000000000000000000000000081525033610848565b6000655af3107a40009050478111156103fd576040517f08c379a00000000000000000000000000000000000000000000000000000000081526004016103f490610f71565b60405180910390fd5b60003373ffffffffffffffffffffffffffffffffffffffff168260405161042390610e96565b60006040518083038185875af1925050503d8060008114610460576040519150601f19603f3d011682016040523d82523d6000602084013e610465565b606091505b505090503373ffffffffffffffffffffffffffffffffffffffff167fc36ab60bda369ed50d31b9c75411b0c6fb7a5aa626b99cabb180c9debc27251d6040516104ad90610fd1565b60405180910390a26003339080600181540180825580915050600190039060005260206000200160009091909190916101000a81548173ffffffffffffffffffffffffffffffffffffffff021916908373ffffffffffffffffffffffffffffffffffffffff16021790555080610558576040517f08c379a000000000000000000000000000000000000000000000000000000000815260040161054f90610f91565b60405180910390fd5b50505b3373ffffffffffffffffffffffffffffffffffffffff167f5f7e16dc676677766a70e9c5628aa6c54ddb8b6e5188e2ae1e1f17f1ffbea71642846040516105a392919061100c565b60405180910390a25050565b60008054905090565b60046020528060005260406000206000915090505481565b60606002805480602002602001604051908101604052809291908181526020016000905b8282101561071857838290600052602060002090600302016040518060600160405290816000820160009054906101000a900473ffffffffffffffffffffffffffffffffffffffff1673ffffffffffffffffffffffffffffffffffffffff1673ffffffffffffffffffffffffffffffffffffffff16815260200160018201805461067d9061121b565b80601f01602080910402602001604051908101604052809291908181526020018280546106a99061121b565b80156106f65780601f106106cb576101008083540402835291602001916106f6565b820191906000526020600020905b8154815290600101906020018083116106d957829003601f168201915b50505050508152602001600282015481525050815260200190600101906105f4565b50505050905090565b606060038054806020026020016040519081016040528092919081815260200182805480156107a557602002820191906000526020600020905b8160009054906101000a900473ffffffffffffffffffffffffffffffffffffffff1673ffffffffffffffffffffffffffffffffffffffff168152602001906001019080831161075b575b5050505050905090565b610845816040516024016107c39190610eef565b6040516020818303038152906040527f41304fac000000000000000000000000000000000000000000000000000000007bffffffffffffffffffffffffffffffffffffffffffffffffffffffff19166020820180517bffffffffffffffffffffffffffffffffffffffffffffffffffffffff8381831617835250505050610980565b50565b6108e0828260405160240161085e929190610f11565b6040516020818303038152906040527f319af333000000000000000000000000000000000000000000000000000000007bffffffffffffffffffffffffffffffffffffffffffffffffffffffff19166020820180517bffffffffffffffffffffffffffffffffffffffffffffffffffffffff8381831617835250505050610980565b5050565b61097c82826040516024016108fa929190610f41565b6040516020818303038152906040527f9710a9d0000000000000000000000000000000000000000000000000000000007bffffffffffffffffffffffffffffffffffffffffffffffffffffffff19166020820180517bffffffffffffffffffffffffffffffffffffffffffffffffffffffff8381831617835250505050610980565b5050565b60008151905060006a636f6e736f6c652e6c6f679050602083016000808483855afa5050505050565b8280546109b59061121b565b90600052602060002090601f0160209004810192826109d75760008555610a1e565b82601f106109f057805160ff1916838001178555610a1e565b82800160010185558215610a1e579182015b82811115610a1d578251825591602001919060010190610a02565b5b509050610a2b9190610a2f565b5090565b5b80821115610a48576000816000905550600101610a30565b5090565b6000610a5f610a5a8461106d565b61103c565b905082815260208101848484011115610a7757600080fd5b610a828482856111d9565b509392505050565b600081359050610a998161134b565b92915050565b600082601f830112610ab057600080fd5b8135610ac0848260208601610a4c565b91505092915050565b600060208284031215610adb57600080fd5b6000610ae984828501610a8a565b91505092915050565b600060208284031215610b0457600080fd5b600082013567ffffffffffffffff811115610b1e57600080fd5b610b2a84828501610a9f565b91505092915050565b6000610b3f8383610b5f565b60208301905092915050565b6000610b578383610e28565b905092915050565b610b688161119d565b82525050565b610b778161119d565b82525050565b6000610b88826110bd565b610b9281856110f8565b9350610b9d8361109d565b8060005b83811015610bce578151610bb58882610b33565b9750610bc0836110de565b925050600181019050610ba1565b5085935050505092915050565b6000610be6826110c8565b610bf08185611109565b935083602082028501610c02856110ad565b8060005b85811015610c3e5784840389528151610c1f8582610b4b565b9450610c2a836110eb565b925060208a01995050600181019050610c06565b50829750879550505050505092915050565b6000610c5b826110d3565b610c658185611125565b9350610c758185602086016111e8565b610c7e8161133a565b840191505092915050565b6000610c94826110d3565b610c9e8185611136565b9350610cae8185602086016111e8565b610cb78161133a565b840191505092915050565b6000610ccf603483611136565b91507f547279696e6720746f207769746864726177206d6f7265206d6f6e657920746860008301527f616e2074686520636f6e7472616374206861732e0000000000000000000000006020830152604082019050919050565b6000610d35602783611136565b91507f4661696c656420746f207769746864726177206d6f6e65792066726f6d20636f60008301527f6e74726163742e000000000000000000000000000000000000000000000000006020830152604082019050919050565b6000610d9b60008361111a565b9150600082019050919050565b6000610db5600783611136565b91507f5761697420356d000000000000000000000000000000000000000000000000006000830152602082019050919050565b6000610df5600d83611136565b91507f4e65772077696e6e6572727221000000000000000000000000000000000000006000830152602082019050919050565b6000606083016000830151610e406000860182610b5f565b5060208301518482036020860152610e588282610c50565b9150506040830151610e6d6040860182610e78565b508091505092915050565b610e81816111cf565b82525050565b610e90816111cf565b82525050565b6000610ea182610d8e565b9150819050919050565b60006020820190508181036000830152610ec58184610b7d565b905092915050565b60006020820190508181036000830152610ee78184610bdb565b905092915050565b60006020820190508181036000830152610f098184610c89565b905092915050565b60006040820190508181036000830152610f2b8185610c89565b9050610f3a6020830184610b6e565b9392505050565b60006040820190508181036000830152610f5b8185610c89565b9050610f6a6020830184610e87565b9392505050565b60006020820190508181036000830152610f8a81610cc2565b9050919050565b60006020820190508181036000830152610faa81610d28565b9050919050565b60006020820190508181036000830152610fca81610da8565b9050919050565b60006020820190508181036000830152610fea81610de8565b9050919050565b60006020820190506110066000830184610e87565b92915050565b60006040820190506110216000830185610e87565b81810360208301526110338184610c89565b90509392505050565b6000604051905081810181811067ffffffffffffffff821117156110635761106261130b565b5b8060405250919050565b600067ffffffffffffffff8211156110885761108761130b565b5b601f19601f8301169050602081019050919050565b6000819050602082019050919050565b6000819050602082019050919050565b600081519050919050565b600081519050919050565b600081519050919050565b6000602082019050919050565b6000602082019050919050565b600082825260208201905092915050565b600082825260208201905092915050565b600081905092915050565b600082825260208201905092915050565b600082825260208201905092915050565b6000611152826111cf565b915061115d836111cf565b9250827fffffffffffffffffffffffffffffffffffffffffffffffffffffffffffffffff038211156111925761119161127e565b5b828201905092915050565b60006111a8826111af565b9050919050565b600073ffffffffffffffffffffffffffffffffffffffff82169050919050565b6000819050919050565b82818337600083830152505050565b60005b838110156112065780820151818401526020810190506111eb565b83811115611215576000848401525b50505050565b6000600282049050600182168061123357607f821691505b60208210811415611247576112466112dc565b5b50919050565b6000611258826111cf565b9150611263836111cf565b925082611273576112726112ad565b5b828206905092915050565b7f4e487b7100000000000000000000000000000000000000000000000000000000600052601160045260246000fd5b7f4e487b7100000000000000000000000000000000000000000000000000000000600052601260045260246000fd5b7f4e487b7100000000000000000000000000000000000000000000000000000000600052602260045260246000fd5b7f4e487b7100000000000000000000000000000000000000000000000000000000600052604160045260246000fd5b6000601f19601f8301169050919050565b6113548161119d565b811461135f57600080fd5b5056fea26469706673582212202e8206ff8203f47f41f0155a830e9907229141546402c13214c74d3159adb09a64736f6c63430008000033",
  "linkReferences": {},
  "deployedLinkReferences": {}
}